:020000040800F2
:1000000000400020590D0008090300080B030008F8
:1000100000000000000000000000000000000000E0
:100020000000000000000000000000000D030008B8
:1000300000000000000000000F030008110300088A
:10004000A90D0008A90D0008A90D0008A90D0008B8
:10005000A90D0008A90D0008A90D0008A90D0008A8
:10006000A90D0008A90D0008A90D0008A90D000898
:10007000A90D0008A90D0008A90D0008A90D000888
:10008000A90D0008A90D0008A90D0008A90D000878
:10009000A90D0008A90D0008A90D0008A90D000868
:1000A000A90D0008A90D0008A90D0008A90D000858
:1000B000A90D0008A90D0008A90D0008A90D000848
:1000C00010B5064C2378002B07D1054B002B02D02E
:1000D000044800E000BF0123237010BD0C00002085
:1000E00000000000040E0008044B10B5002B03D0E4
:1000F0000349044800E000BF10BDC04600000000F6
:1001000010000020040E0008002243088B4274D324
:1001100003098B425FD3030A8B4244D3030B8B4208
:1001200028D3030C8B420DD3FF22090212BA030C11
:100130008B4202D31212090265D0030B8B4219D3F2
:1001400000E0090AC30B8B4201D3CB03C01A524112
:10015000830B8B4201D38B03C01A5241430B8B425A
:1001600001D34B03C01A5241030B8B4201D30B0343
:10017000C01A5241C30A8B4201D3CB02C01A52416A
:10018000830A8B4201D38B02C01A5241430A8B422D
:1001900001D34B02C01A5241030A8B4201D30B0216
:1001A000C01A5241CDD2C3098B4201D3CB01C01A30
:1001B000524183098B4201D38B01C01A524143093A
:1001C0008B4201D34B01C01A524103098B4201D328
:1001D0000B01C01A5241C3088B4201D3CB00C01A95
:1001E000524183088B4201D38B00C01A524143080D
:1001F0008B4201D34B00C01A5241411A00D2014632
:10020000524110467047FFE701B5002000F006F8A4
:1002100002BDC0460029F7D076E770477047C04658
:1002200030B589B01422002103A800F0E3FD134B80
:1002300059698020C002014359615A690240019204
:10024000019A5A69802189020A435A615B690B400D
:100250000293029B8025AD01094C00222900200059
:1002600000F024FD039501230493002305930693D6
:1002700003A9200000F04EFC09B030BD0010024080
:100280000004004800B593B03022002106A800F019
:10029000B1FD1022002101A800F0ACFD022305935E
:1002A000013B08930F33099305A800F04DF807238D
:1002B00001930023029303930493002101A800F00B
:1002C0002DFB13B000BD000070B500F0EFFBFFF791
:1002D000D9FFFFF7A5FF8026B6010A4D01223100A4
:1002E000280000F0E3FCFA24A400200000F000FC49
:1002F00000223100280000F0D9FC200000F0F8FBBB
:10030000E9E7C046000400487047FEE770477047C1
:1003100010B500F0DBFB10BD82B00A4B99690122D9
:100320001143996199690A400092009ADA69802123
:1003300049050A43DA61DB690B400193019B02B076
:100340007047C0460010024070B582B0041E00D154
:1003500085E20368DB072BD5B34B5A680C231340A7
:10036000042B1DD0B04B5A680C231340082B0ED021
:100370006368012B41D0002B56D1AB4B1A68AB49B7
:100380000A401A601A68AA490A401A603BE0A64B64
:100390005B68C02252021340802252029342E7D18E
:1003A000A14B1B689B0303D56368002B00D159E266
:1003B00023689B0778D59C4B5B680C221A4262D05D
:1003C000994B5A680C231340082B53D0E368002B39
:1003D00000D18BE0944A136801210B43136000F0B5
:1003E00081FB0500904B1B689B0776D400F07AFBDD
:1003F000401B0228F6D9032032E28B4A1168802381
:100400005B020B4313606368002B25D000F06AFB8E
:100410000500854B1B689B03CAD400F063FB401B9F
:100420006428F6D903201BE2052B09D07E4B1A68FD
:100430007E490A401A601A687D490A401A60E2E75C
:10044000794B19688022D2020A431A601968802207
:1004500052020A431A60D6E700F044FB0500724BD3
:100460001B689B03A4D500F03DFB401B6428F6D914
:100470000320F5E16C4B5B68C022520213408022DE
:1004800012029342A2D1684B1B689B0704D5E36814
:10049000012B01D00120E3E163490B68F82293436B
:1004A0002269D20013430B6023681B0744D5E3691C
:1004B000002B2ED05C4A536A01210B43536200F09B
:1004C00011FB0500584B5B6A9B0735D400F00AFB13
:1004D000401B0228F6D90320C2E153490B68F822D9
:1004E00093432269D20013430B60DDE74E4A136841
:1004F00001218B43136000F0F5FA05004A4B1B689D
:100500009B07D1D500F0EEFA401B0228F6D9032054
:10051000A6E1454A536A01218B43536200F0E2FA97
:100520000500414B5B6A9B0706D500F0DBFA401BD8
:100530000228F6D9032093E123685B0700D47FE00B
:10054000394BDB69DB001DD4374AD1698020400577
:100550000143D161D36903400193019B0125354BD0
:100560001B68DB0510D5A368012B21D0002B36D1E9
:100570002D4B1A6A01218A431A621A6A03318A438F
:100580001A621AE00025EAE72A4A116880235B0014
:100590000B43136000F0A6FA0600264B1B68DB0530
:1005A000E1D400F09FFA801B6428F6D9032057E1BC
:1005B0001D4A136A01210B431362A368002B24D048
:1005C00000F090FA0600184B1B6A9B0736D400F027
:1005D00089FA801B184B9842F5D9032040E1052B7E
:1005E00009D0114B1A6A01218A431A621A6A03312F
:1005F0008A431A62E1E70C4B1A6A04210A431A6221
:100600001A6A03390A431A62D7E700F06BFA060048
:10061000054B1B6A9B0711D500F064FA801B064B43
:100620009842F5D903201BE100100240FFFFFEFFB6
:10063000FFFFFBFF0070004088130000012D3AD03F
:100640002368DB0610D56369012B3AD0053358D1F6
:10065000884A536B04218B435363536BF4318B43B0
:10066000A169C9000B43536323689B0600D482E051
:10067000804B5A680C2313400C2B60D07D4B5A687A
:100680000C231340082B53D0236A002B60D0794AE7
:10069000516B80235B020B43536300F023FA050088
:1006A000744B5B6BDB0366D400F01CFA401B022822
:1006B000F6D90320D4E06F4AD3696F490B40D36168
:1006C000BEE76C4B5A6B04210A435A635A6B0339D9
:1006D0000A435A6300F006FA0500664B5B6B9B0702
:1006E00006D400F0FFF9401B0228F6D90320B7E03A
:1006F00060494B6BF8229343A269D20013434B63CA
:10070000B2E75C4B5A6B04210A435A635A6B0339B4
:100710008A435A6300F0E6F90500564B5B6B9B0772
:10072000A2D500F0DFF9401B0228F6D9032097E09C
:10073000504B5B68C022520213409342A4D14D4BF0
:100740005B6BDB0317D5236A012B14D0012087E0F4
:10075000484A536B49490B40536300F0C3F9050005
:10076000444B5B6BDB0306D500F0BCF9401B022851
:10077000F6D9032074E0636A002B00D174E03D4A8F
:1007800051680C220A40082A4DD0022B12D0394A57
:1007900013683B490B40136000F0A4F90400354B8B
:1007A0001B689B013DD500F09DF9001B0228F6D97E
:1007B000032055E02F4A136831490B40136000F0C5
:1007C00091F905002B4B1B689B0106D500F08AF9B7
:1007D000401B0228F6D9032042E0264BDA6A0F219B
:1007E0008A43216B0A43DA625A6826490A40E16A61
:1007F000A06A01430A435A601968802252040A43DE
:100800001A6000F06FF904001A4B1B689B0106D4B4
:1008100000F068F9001B0228F6D9032020E0002030
:100820001EE000201CE0012B20D0124B5A68D96A30
:10083000C0235B021340A06A834201D001200FE075
:100840000F230B40216B8B4201D0012008E0F023E5
:100850009B031A40E36A9A420AD0012000E001207B
:1008600002B070BD0120FBE70020F9E70120F7E7A7
:100870000020F5E700100240FFFFFFEFFFFFFEFF43
:10088000FFFFFFFEFF7FC2FF30B589B004AA1F4BF8
:10089000180032C832C2110002680A606A4610337A
:1008A00013CB13C21B681360194B5A680C231340F7
:1008B000082B04D00C2B26D0164809B030BD910C63
:1008C0000F23194004A8445C1149C96A0B406946CA
:1008D000C95CC0235B021A4080235B029A4208D0A5
:1008E000C0235B029A4209D00A48FFF70DFC60431F
:1008F000E3E70848FFF708FC6043DEE70648FFF738
:1009000003FC6043D9E70448D7E7C0461C0E000843
:100910000010024000127A00006CDC0270B5040086
:100920000D00002800D189E0464B1A6801231340CE
:100930008B420BD243490B68012293432B430B603C
:100940000B681A40AA4201D0012078E023689A0778
:100950000ED55B0705D53C4A5168E023DB000B430D
:100960005360394A5368F0218B43A1680B435360AD
:100970002368DB0735D56368012B09D0022B24D00F
:10098000032B28D0304A1268920705D4012056E084
:100990002D4A1268920353D52B494A68032082439B
:1009A00013434B6000F09EF80600274B5B680C2257
:1009B0001A4063689B009A4213D000F093F8801BA2
:1009C000224B9842F1D9032039E01F4A1268920164
:1009D000E2D4012033E01C4A526BD203DCD4012064
:1009E0002DE0184B1A6801231340AB420BD915496F
:1009F0000B68012293432B430B600B681A40AA42F9
:100A000001D001201BE023685B0706D50E4A53681E
:100A10000F490B40E1680B435360FFF735FF0A4B6A
:100A20005A6812090F2313400A4AD35CD8400A4B74
:100A30001860002000F012F8002000E0012070BDD6
:100A40000120FCE700200240001002408813000053
:100A5000FFF8FFFF3C0E00080800002010B504005E
:100A60000F4B1978FA208000FFF74EFB01000D4B69
:100A70001868FFF749FB00F051F900280DD1032C4D
:100A800001D901200AE0013000222100404200F09B
:100A900013F9054B1C60002000E0012010BDC0468A
:100AA00000000020080000200400002010B5064AC5
:100AB000136810210B4313600020FFF7CFFFFFF7EF
:100AC0002BFC002010BDC04600200240034A1168E4
:100AD000034B1B785B1813607047C046280000204A
:100AE00000000020014B18687047C0462800002015
:100AF00070B50400FFF7F6FF0500631C02D0044B3D
:100B00001B78E418FFF7EEFF401BA042FAD370BD3C
:100B100000000020F0B5C64600B582B0002338E0E2
:100B2000042600E00026AE4035003D430234A40018
:100B3000574EA551574C25684246D4432E002640B7
:100B40004A68D20302D5424615432E00514D2E600D
:100B50006D682E0026404A68920302D5424615432E
:100B60002E004C4D6E60AD682E0026404A68D202C1
:100B700002D5424615432E00464DAE60ED682C402E
:100B80004A68920202D542462A431400414AD46080
:100B900001330A681400DC4076D001259D402A40CC
:100BA0009046F5D04C68022C01D0122C0ED1DC08F6
:100BB0000834A400275807261E40B6000F22B24072
:100BC00097430A69B24016003E43265002685F0010
:100BD00003242600BE40F643324094464A6814403F
:100BE000BC406246144304604C68621E012A03D96B
:100BF000112C01D0122C10D184683440A446CC684A
:100C0000BC406246144384604468AC434A6812099D
:100C1000012515409D4025434560C46826408C68E9
:100C2000BC403443C4604A68D200B1D51A4DAE69A5
:100C300001242643AE61AD692C400194019C9C08BF
:100C4000A51CAD00124EAF5903261E40B5000F265D
:100C5000AE40B7439026F605B04200D162E70F4E92
:100C6000B0420BD00E4EB0420AD00E4EB04209D068
:100C70000D4EB04200D153E7052654E7012652E756
:100C8000022650E703264EE702B004BC9046F0BDB2
:100C90000000014000040140001002400004004830
:100CA00000080048000C004800100048002A01D14C
:100CB000816270478161FCE770B5002811DB830811
:100CC000144DC0339B005C5903221040C000FC321D
:100CD00016008640B44389010A40824022435A519B
:100CE00070BDC0B20F230340083B9B0806339B0036
:100CF000094A944663445D6803242040C000FF22F3
:100D000014008440A5438901114081402943596062
:100D1000E6E7C04600E100E000ED00E001380A4BE4
:100D200098420FD8094A50600948036A1B021B0AFF
:100D3000C02109060B43036200239360073313604D
:100D4000002070470120FCE7FFFFFF0010E000E0FB
:100D500000ED00E0704700000D4885460D480E4943
:100D60000E4A002302E0D458C4500433C4188C4205
:100D7000F9D30B4A0B4C002301E013600432A2426A
:100D8000FBD3FFF7E7FF00F011F8FFF79DFAFEE74E
:100D900000400020000000200C000020540E00083D
:100DA0000C0000202C000020FEE7000070B500269B
:100DB0000C4D0D4C641BA410A64209D1002600F076
:100DC00021F80A4D0A4C641BA410A64205D170BD3F
:100DD000B300EB5898470136EEE7B300EB5898475D
:100DE0000136F2E74C0E00084C0E00084C0E0008CD
:100DF000500E000803001218934200D1704719707A
:100E00000133F9E7F8B5C046F8BC08BC9E46704708
:0C0E1000F8B5C046F8BC08BC9E46704710
:100E1C0002030405060708090A0B0C0D0E0F10102F
:100E2C000102030405060708090A0B0C0D0E0F102E
:100E3C00000000000000000001020304060708097E
:040E4C00E9000008B1
:040E5000C1000008D5
:0C0E5400010000000400000000127A0001
:0400000508000D5989
:00000001FF
